:020000040800F2
:10000000F817002039020008631F0008391F000894
:10001000611F0008690E0008C923000800000000E5
:10002000000000000000000000000000A101000826
:10003000F10E000800000000E5010008651F00083F
:10004000530200085302000853020008530200083C
:10005000530200085302000853020008530200082C
:10006000530200085302000853020008530200081C
:10007000530200085302000853020008530200080C
:1000800053020008530200085302000853020008FC
:1000900053020008530200085302000853020008EC
:1000A00053020008530200085302000853020008DC
:1000B0005302000853020008F11F00085302000811
:1000C00053020008530200085302000853020008BC
:1000D00053020008E52200085302000853020008FA
:1000E00053020008530200085302000800F002F80F
:1000F00000F047F80AA090E8000C82448344AAF17B
:100100000107DA4501D100F03CF8AFF2090EBAE878
:100110000F0013F0010F18BFFB1A43F0010318473B
:100120009C3B0000BC3B0000103A24BF78C878C15B
:10013000FAD8520724BF30C830C144BF04680C60ED
:10014000704700000023002400250026103A28BF35
:1001500078C1FBD8520728BF30C148BF0B60704739
:10016000642900F0DD80002070471FB59DE8030082
:1001700000F04CFC00F03EFA1FBD10B500F0A3FAF1
:1001800010BD00F006FB1146FFF7EFFF02F040F94B
:1001900000F00AFC03B4FFF7F0FF03BC00F0C8FD59
:1001A000224B19680868B0E8F00F80F30988BFF3A4
:1001B0006F8F4FF0000080F311884EF00D0E7047E6
:1001C0000000000006480068006880F3088862B6F6
:1001D00061B6BFF34F8FBFF36F8F00DF00BF00BF6B
:1001E00008ED00E0EFF30980BFF36F8F0F4B1A6843
:1001F00020E9F00F106008B54FF0500080F311882F
:10020000BFF34F8FBFF36F8F02F086FF4FF00000F8
:1002100080F31188BDE8084019680868B0E8F00F5D
:1002200080F30988BFF36F8F704700BF380000204C
:10023000EFF30580704700000948804709480047F0
:10024000FEE7FEE7FEE7FEE7FEE7FEE7FEE7FEE786
:10025000FEE7FEE704480549054A064B70470000E3
:10026000EF1F0008ED000008F8110020F81700202B
:10027000F8130020F81300200FB4044910B503AAA6
:10028000029800F0A1F910BC5DF814FBEC100020FE
:100290000FB41CB5074B06AA7B446946009005982D
:1002A00000F079F90020694600F088F91CBC5DF87F
:1002B00014FB0000210300002DE9F0410E46044626
:1002C000002020622046E168884730B3252805D009
:1002D000D4E901219047206A401CF2E7E1682046FA
:1002E00000278847050018D0A5F14100192802D839
:1002F00020354FF400673246294620462760FFF735
:100300002FFF40B1012804D0F61D26F0070608365D
:10031000D8E7361DD6E72846DAE7206ABDE8F0813F
:100320002DE9F0410646002410687529314616A5CE
:1003300010D0AFF30080002802DA404213A507E096
:1003400031688A0701D512A502E0490704D511A535
:10035000012401E0AFF3008000210A2206F1240706
:1003600009E0B0FBF2FCB0FBF2F302FB1C00303002
:1003700078541846491C0028F3D123462A463046B3
:10038000BDE8F04100F0A9B8000000002D00000019
:100390002B00000020000000032A40F2308010F003
:1003A000030C00F0158011F8013BBCF1020F624410
:1003B00098BF11F801CB00F8013B38BF11F8013BA1
:1003C000A2F1040298BF00F801CB38BF00F8013B4E
:1003D00011F0030300F02580083AC0F0088051F8BE
:1003E000043B083A51F804CBA0E80810F5E7121DC9
:1003F0005CBF51F8043B40F8043BAFF30080D207E8
:1004000024BF11F8013B11F801CB48BF11F8012BB3
:1004100024BF00F8013B00F801CB48BF00F8012BD6
:10042000704710B5203AC0F00B80B1E81850203A60
:10043000A0E81850B1E81850A0E81850BFF4F5AF84
:100440005FEA027C24BFB1E81850A0E8185044BF0E
:1004500018C918C0BDE810405FEA827C24BF51F87B
:10046000043B40F8043B08BF7047D20728BF31F86F
:10047000023B48BF11F8012B28BF20F8023B48BFC0
:1004800000F8012B70474FF0000200B51346944668
:100490009646203922BFA0E80C50A0E80C50B1F1DC
:1004A0002001BFF4F7AF090728BFA0E80C5048BFF0
:1004B0000CC05DF804EB890028BF40F8042B08BF8E
:1004C000704748BF20F8022B11F0804F18BF00F88A
:1004D000012B70477047704770472DE9F0470D4674
:1004E00099469246044600F124080168880604D51E
:1004F000E06921F01001216000E00120A84201DD47
:10050000471B00E00027A1697A1902EB0900081ACD
:10051000A0612078C00602D42046AFF300800026F8
:1005200008E0D4E901211AF806009047206A401C2F
:10053000761C20624E45F4DB2078C0060AD52046A2
:10054000AFF3008006E0D4E9012130209047206A13
:10055000401C2062381EA7F10107F4DC07E0D4E953
:10056000012118F805009047206A401C2062281ECF
:10057000A5F10105F3DC2046AFF3008020780006EA
:1005800002D50220BDE8F0870120FBE701694A1C83
:1005900002610878704700B58FB0CDE901310021C4
:1005A000059105497944CDE9031011466846FFF7E6
:1005B00083FE0FB000BD0000E5FFFFFF0A6802F8F0
:1005C000010B0A6070470000074B70B50D467B4475
:1005D000FFF7E1FF0446284600F008F810B14FF09D
:1005E000FF3070BD204670BD1B1E0000007B00F078
:1005F0008000704710B542485421FFF744FF41483E
:100600005421FFF740FF40485421FFF73CFF3F498A
:100610003B483C4A3F4B08603D490A603A491960F3
:10062000531C0365481C1065012008653B48344A8B
:1006300039A1784400F01CF920B9384878440A38C8
:1006400000F0BBF937482F4A35A1784400F010F983
:1006500020B9344878440A3800F0AFF932482A4AC1
:100660002FA1784400F004F920B92F4878440A38C3
:1006700000F0A3F940232248DC000021224600F0CC
:10068000D4F820B125487844543800F096F91D4834
:1006900022464023002100F0C8F820B121487844C8
:1006A000543800F08AF9184822461023002100F03F
:1006B000BCF8002806D01C487844BDE810405638E5
:1006C00000F07BB910BD104870B5006D20F001043A
:1006D0000B4800F043F90B4800F040F90A4800F0DD
:1006E0003DF909E0206D20F00105204600F036F9C3
:1006F000204600F073F82C46002CF3D170BD0000AA
:1007000098100020EC1000204011002098000020DC
:100710009C000020A00000207200000004360000B1
:1007200077000000F0350000DC3500000EB5CDE9A3
:10073000000100F0DDFA029069460120ABBE0EBD5B
:1007400008B5694600900220ABBE08BD1FB58DE814
:10075000070069460520ABBE04B010BD1FB58DE88B
:100760000F0069460620ABBEF6E708B56946009063
:100770000920ABBE08BD1CB5CDE9000169460A20C1
:10078000ABBE1CBD704708B5694600900C20ABBEDF
:1007900008BD754600F018F9AE4605006946534697
:1007A00020F00700854618B020B5FFF753FDBDE8DF
:1007B00020404FF000064FF000074FF000084FF0C8
:1007C000000B21F00701AC46ACE8C009ACE8C00959
:1007D000ACE8C009ACE8C0098D46704770B5044666
:1007E000051F00F0F7F80068002C14BF446870BDC6
:1007F000002C18BFAC423CBF20466468F8D30168A7
:100800000A18AA4218BF456003D12A680546114458
:10081000016028684119A1421CBF6C6070BD61680D
:10082000696021680844286070BD70B5C468A50778
:1008300013D0650211D4B2F5807F09D0B2F5007FE4
:1008400006D0B2F5806F08D1012300F1240106E043
:100850005D1E6FF07F46B54201D3012070BD01617E
:10086000C361416024F470611143C160002070BD18
:100870002DE9F0410C4607461646104600F06EF88A
:100880002078611C61280AD0722802D077283CD1D8
:1008900002E00125002405E00225042402E00824EA
:1008A00048F2020511F8010B2B2806D0622809D066
:1008B00011F8010C74280AD00BE045F0030544F050
:1008C0000204EFE745F0040544F00104EAE744F0D0
:1008D000100438462146FFF729FF411C15D000219E
:1008E000316171604FF40071F560F1617061200752
:1008F00004D530460222002100F0E6F8306D40F0C9
:10090000010030653046BDE8F0810020FBE72DE9AD
:10091000F0410D460646104C206DC10704D0410839
:1009200004D020F00104F7E722460EE0542000F046
:100930009CF807000ED0206D47F0010108435421B8
:1009400020653846FFF79FFD3A4629463046BDE808
:10095000F0418DE70020D6E7981000202DE9F04700
:1009600004464FF000094FF0FF37C568D4E904860C
:10097000A80707D0204600F057F93046FFF7E0FE01
:10098000002802DA3846BDE8F087280502D540463F
:10099000FFF724FF4C212046FFF775FD206D20F066
:1009A000010020654846EEE710B50446AFF300802D
:1009B0002046BDE81040FFF7EDBB10B500F07EF912
:1009C000BDE8104000F074B9004870479411002051
:1009D00070470000004870479C1100207047704726
:1009E0007047704738B504460A4600206946AFF3A1
:1009F0000080002808BF38BD02460099204600F05C
:100A0000A4F9012038BD012000F0F3B9F8B5AFF327
:100A10000080054600200C46102000BF0646A8199D
:100A2000A0420DD9324669460020AFF3008007008E
:100A300008BF00F0DEF90098A04218BF0546C419AF
:100A4000FFF7C8FF05600746F01D20F007004619B4
:100A5000284600F073F9B44208BFF8BDA21B314626
:100A60003868BDE8F84000F070B970B50646FFF789
:100A7000B1FF056806F10B0020F00704B4429CBFEB
:100A8000002070BD2B466A68BAB11068A04210D32E
:100A900004F1080188423CBF5068586007D3516890
:100AA000101941601168091B016058601460101D25
:100AB00070BD13465268002AE7D121462846FFF749
:100AC00091FF0028DED170BD2DE9F04104461646A5
:100AD0000D464769007B80072ED03846FFF745FE5C
:100AE00050BB3EB3012E02D0022E25D104E0204699
:100AF00000F045F905441DE03846FFF744FEE16883
:100B0000002841F01001E16005DA204600F058F8B5
:100B10000120BDE8F081C9030BD56268E16A91420A
:100B200000D81146A26911442269891A814200DD68
:100B300008460544002D01DA0220EAE7E16A606810
:100B4000E268814206D29103E06203D522F40031CB
:100B500041F01002A6690027AE4213DCE16A81422F
:100B600001D90B4600E0034603EB060C2369ACEB0E
:100B7000030CAC4506DD814201D98C4600E0844679
:100B80009C4505D1A760276042F02000A5620DE0DA
:100B9000AD1BE669AE1B8142A66000D90846C01AAB
:100BA000281A20605819606022F02000034908408C
:100BB000E060002084F84870ABE70000BFCFD7FFAB
:100BC000C16821F4001141F08001C1600021816001
:100BD000016070472DE9F047814614460E464FF0FC
:100BE000FF383248D5685769054209D03846A169AF
:100BF000FFF7C1FD002811DB2C48C0430540E5602C
:100C00002B46324649463846FFF7A0FDA16920F041
:100C10000042B21A11440028A16103D02046FFF718
:100C2000CFFF4046BDE8F08770B504460569C06A4D
:100C30006168884200D80846E16821F42011E1602B
:100C4000C90312D5A84208D02246411B2846FFF707
:100C5000C1FF10B14FF0FF3070BD0020E562C4E964
:100C60000150E06820F48030E060002070BD10B5D5
:100C70000446C06820F02000E060A16AA0698842B4
:100C80000DD02046FFF7D0FFE06820F4405040F040
:100C90001000E060A06AA0612069E062606044F238
:100CA0004001E0688843E06010BD000010000200D1
:100CB000002801D000F03CB87047000010B5014694
:100CC00002A000F07DF8012010BD000053494752FA
:100CD000545245443A2052656469726563743A20FF
:100CE00063616E2774206F70656E3A20000000000B
:100CF00010B5431C02E010F8011B71B18107FAD155
:100D00004FF0013202C88C1A8C4314EAC211F9D098
:100D1000C01A0A0603D0C01E10BDC01A10BD0A04B6
:100D200001D0801E10BD0902FCD0401E10BD000085
:100D300001491820ABBEFEE7260002000021016039
:100D4000C0E90110704710207047034640688C4688
:100D5000002818BF88423CBF03464068F8D3186893
:100D60001844884207D00CF1030020F00700001D52
:100D7000411A521A0146081D0A60FFF72FBD10B52F
:100D80000146C268900703D0900607D5886A0AE03A
:100D900000F03EF801210160881E10BD8B69486893
:100DA00018440B69C01A91F848301BB191F84910EA
:100DB000401A10BD1103FCD50028FADD401E10BDFD
:100DC00070B505460C460A2000E06D1C00F018F8CE
:100DD00035B128780028F8D102E0641C00F010F842
:100DE00014B120780028F8D1BDE870400A2000F046
:100DF00007B810B500F010F8BDE81040FFF758BF75
:100E000008B569468DF800000320ABBE08BD0000A0
:100E1000004870479411002010B5012805D000212A
:100E200003A0FFF7CDFF012010BD09A1F8E70000E6
:100E300053494752544D454D3A204F7574206F66C3
:100E40002068656170206D656D6F7279000000002B
:100E50003A2048656170206D656D6F727920636F0F
:100E60007272757074656400FEE70000002002F085
:100E7000EDF802A0FFF700FAF8E7000068656C6C77
:100E80006F2066726F6D2041626F76654E6F726D76
:100E9000616C205461736B0A00000000DFF84C8025
:100EA00000274FF0FF3A3E4651464446D8F81C0012
:100EB00001F059FB4FF00109054680F800905146BA
:100EC000606A01F050FB044680F800906F70AE70CD
:100ED0002946D8F81C0001F0C9FB6770A6702146AE
:100EE000D8F8240001F0C2FBF0E700000000002069
:100EF000704710B590F821100022022905D0042176
:100F0000816380F82020012010BD01680B6823F068
:100F10000E030B6001680B6823F001030B6090F86F
:100F20004030C46B012101FA03F3636080F82110A3
:100F300080F82020104610BD10B590F82110002434
:100F4000022903D00421816301243DE001680A687D
:100F500022F00E020A6001680A6822F001020A60AB
:100F60001A4A0168914201D1012121E0174A143245
:100F7000914201D110211BE0144A2832914201D143
:100F8000891515E0114A3C32914201D189140FE0D4
:100F90000E4A5032914202D14FF4803108E00B4AA0
:100FA0006432914202D14FF4801101E04FF0807120
:100FB000064A083A5160012180F82110002180F88A
:100FC0002010416B01B18847204610BD0800024047
:100FD0002DE9F84FDFF8B891002409F1040A0AF16D
:100FE000040B23460F270BF1040EC9E00125A54091
:100FF0002A40AA427DD1674ED1F804C0ACEB060866
:10100000B44532D014DCBCF1030F3AD009DCBCF19A
:10101000000F2AD0BCF1010F1CD0BCF1020F31D15E
:101020001DE0BCF1110F17D0BCF1120F2AD119E04D
:10103000B8F5881F19D006DCB8F5803F15D0B8F593
:10104000801F1FD111E0B8F5001F0ED0B8F5041FA6
:1010500018D10AE0CB6815E0CB681B1D12E0CB6805
:1010600008330FE0CB680C330CE08B682BB1012BFD
:101070004FF0080303D0456104E0042302E005615A
:1010800000E00023FF2A01D8064601E000F1040633
:101090004FEA840501D9A5F12005D6F8008007FAAA
:1010A00005FC28EA0C0803FA05F548EA0508C6F825
:1010B00000804D68ED0062D5374DAE6946F00106FF
:1010C000AE61AD6924F0030605F001050095334DCE
:1010D00006EB050CDCF80850A607360F07FA06F8F1
:1010E00025EA0805DFF8B880404503D14FF0000835
:1010F00017E044E0DFF8AC80404502D14FF0010832
:101100000FE0DFF8A480404502D14FF0020808E06C
:10111000DFF89880404502D14FF0030801E04FF01E
:10112000040808FA06F848EA0508CCF808804D6873
:10113000D9F80060ED034D4601D5164300E0964313
:101140002E604D68DAF80060AD03554601D51643B0
:1011500000E096432E604D68DBF80060ED025D46CE
:1011600001D5164300E096432E604D68DEF800601E
:10117000AD02754601D5164300E096432E60641C0F
:101180000D682A46E5407FF431AFBDE8F88F0000D6
:101190000004014000001110001002400000014056
:1011A00000080140000C0140001001400014014003
:1011B00001488068704700002800002002488168CC
:1011C000027811448160704728000020074810B55C
:1011D000016841F010010160032000F0A7F80F2022
:1011E00000F006F800F050F8002010BD002002408A
:1011F00030B505461F4887B0C16941F00401C1619F
:10120000C06906A900F00400009001A800F036F9BA
:101210000498B0B100F052F940001749174AB0FBEA
:10122000F1F11748491E0260416040F2E7320021A7
:10123000C0E903218160816100F028FB040003D034
:1012400015E000F03BF9E8E70D4800F04DFB040025
:101250000DD11E2000F03CF8102D07D200222946A7
:101260001E2000F043F80748056000E0012407B0A5
:10127000204630BD0010024040420F0000080040F0
:10128000600300202C0000200F4808B5816941F060
:1012900001018161816901F001010091C16941F0A1
:1012A0008051C161C069002200F0805000900F2180
:1012B000901E00F01BF80548416821F0E06141F004
:1012C0000071416008BD00000010024000000140B4
:1012D000002809DB00F01F02012191404009800035
:1012E00000F1E020C0F8001170470000F0B40E4B90
:1012F0001B680C46C3F30223C3F10705042D00D974
:101300000425191D072901D2002300E0DB1E012658
:1013100006FA05F1491E214099409E40761E16406E
:101320003143F0BC01F051B80CED00E0064900F08B
:10133000070208684FF6FF03184040EA0220034AFC
:1013400010430860704700000CED00E00000FA0553
:101350002DE9F0470F46050061D0434E306800F09C
:101360000700B84209D2306820F0070038433060E7
:10137000306800F00700B84251D128683B4C810723
:1013800012D5400703D5606840F4E06060602878BB
:10139000000703D5606840F4605060606068A96829
:1013A00020F0F000084360602878C00728D0686803
:1013B000012810D02168022810D0890700292EDAD0
:1013C000616821F0030101436160FFF7F1FE80468F
:1013D00041F288390DE021688903EFE78901EDE7E3
:1013E000FFF7E6FEA0EB0801494502D90320BDE85E
:1013F000F0876068696800F00C00B0EB810FEFD1F6
:10140000306800F00700B8420BD9306820F00700C0
:1014100038433060306800F00700B84201D0012046
:10142000E5E72878400705D56068E96820F4E060C2
:10143000084360602878000706D56068296920F4B1
:10144000605040EAC100606000F058F86168084AE6
:10145000C1F30311515CC8400649086006480068A2
:10146000FFF7C6FE0020C2E7002002400010024045
:10147000223C0008340000202C0000200F220260D3
:101480000C4A536803F003034360536803F0F0030E
:101490008360536803F4E063C36052684FF4E06311
:1014A00003EAD20202610448006800F00700086005
:1014B0007047000000100240002002400448054927
:1014C00000684968044AC1F30221515CC840704772
:1014D0003400002000100240323C00080448054956
:1014E00000684968044AC1F3C221515CC840704792
:1014F0003400002000100240323C000812A185B0E8
:101500000FC98DE80F0014A0144A006804905168B8
:10151000134801F00C03042B10D0082B0ED1C1F39B
:101520008343C9031DF803000AD5516804AAC1F317
:101530004041515C0A4A5043B0FBF1F005B070479E
:1015400008494843FAE700000203040506070809B2
:101550000A0B0C0D0E0F10100102000000100240CB
:1015600000127A0000093D002DE9F84F040070D008
:101570002078C04DC00749D06868C0F381000128B9
:1015800007D06868C0F38100022809D16868C003E9
:1015900006D52868800339D560680028E7D035E093
:1015A0006068B0F5803F0BD010B1B0F5A02F11D01E
:1015B000286820F480302860286820F4802002E029
:1015C000286840F480302860606890B1FFF7F0FD33
:1015D00006460AE0286840F480202860F0E700BF53
:1015E000FFF7E6FD801B642873D828688003F7D5D1
:1015F0000CE0FFF7DDFD064605E000BFFFF7D8FD74
:10160000801B6428F0D828688003F7D420789A4E8D
:1016100080074FF001094FF0000839D5686810F0D5
:101620000C0F07D06868C0F38100022809D16868F0
:10163000C00306D42868800714D52069012808D182
:1016400010E02069B0B1C6F80090FFF7B1FD074681
:1016500005E00AE1FFF7ACFDC01B0228C4D82868EA
:101660008007F7D52868616920F0F80040EAC100DA
:1016700028600DE0C6F80080FFF79AFD074604E0F9
:10168000FFF796FDC01B022823D828688007F7D4EF
:10169000207800072CD57948A169D9B1C0F800900D
:1016A000FFF786FD074604E0FFF782FDC01B022816
:1016B0000FD8686A8007F7D571484FF4FA5100686F
:1016C000B0FBF1F0009000BF0098411E0091FAD2EB
:1016D0000EE080E0C0F80080FFF76AFD074604E0F6
:1016E000FFF766FDC01B022875D8686A8007F7D42B
:1016F0002078400760D5E8690027C00008D4E86971
:1017000040F08050E861E869012700F080500090C7
:101710005C480168C90513D40168834641F48071AF
:101720000160FFF745FD824606E000BFFFF740FD80
:10173000A0EB0A0064284ED8DBF80000C005F5D500
:10174000E06801280AD008B1052813D0286A20F0E3
:1017500001002862286A20F0040002E0286A40F0B4
:1017600001002862E06841F2883B98B1FFF720FD54
:1017700082460BE0286A40F004002862EEE700BFD2
:10178000FFF716FDA0EB0A0159455AD8286A8007D1
:10179000F6D50CE0FFF70CFD824605E0FFF708FDEB
:1017A000A0EB0A0159454CD8286A8007F6D41FB12E
:1017B000E86920F08050E861E06988B36968C1F3A6
:1017C0008101022944D00228C6F8608004D0FFF7C6
:1017D000EFFC044638E034E0FFF7EAFC074604E09B
:1017E000FFF7E6FCC01B02282BD828688001F7D43D
:1017F000206AB0F5803F05D16868A16820F4003008
:1018000008436860D4E908010843696821F4741149
:1018100008436860C6F86090FFF7CAFC044606E01B
:1018200025E000BFFFF7C4FC001B022809D8286888
:101830008001F7D51BE000BFFFF7BAFC001B0228B0
:1018400002D90320BDE8F88F28688001F4D40EE0A7
:101850000128F7D06868226A00F48031914204D1EF
:10186000616A00F47010884201D00120EAE700208C
:10187000E8E70000001002400000424280044242BB
:1018800034000020007000407047704710B504001D
:1018900003D094F83D0010B107E0012010BD0020F6
:1018A00084F83C00204600F01EF8022084F83D0039
:1018B000211D206800F0A2FB012084F8460084F876
:1018C0003E0084F83F0084F8400084F8410084F82A
:1018D000420084F8430084F8440084F8450084F80A
:1018E0003D00002010BD704790F83D10012901D047
:1018F00001207047022180F83D100168CA6842F05B
:101900000102CA6000680B49884208D0B0F1804FDC
:1019100005D00949884202D00849884204D181682B
:1019200001F00701062903D0016841F001010160BF
:1019300000207047002C01400004004000080040D7
:10194000704770B50446006801694FF00005C9434F
:10195000890715D4C168C943890711D4E91E0161FB
:1019600001202077206880698007204602D0FFF799
:10197000E7FF04E000F098F8204600F096F825779D
:1019800020680169C943490717D4C168C943490799
:1019900013D46FF004010161022020772068806970
:1019A00010F4407F204602D0FFF7CAFF04E000F0A9
:1019B0007BF8204600F079F8257720680169C94353
:1019C000090716D4C168C943090712D46FF008018A
:1019D0000161042020772068C0698007204602D07A
:1019E000FFF7AEFF04E000F05FF8204600F05DF87E
:1019F000257720680169C943C90617D4C168C9435E
:101A0000C90613D46FF01001016108202077206807
:101A1000C06910F4407F204602D0FFF791FF04E038
:101A200000F042F8204600F040F825772068016970
:101A3000C943C90708D1C168C943C90704D1891E70
:101A40000161204600F032F820680169C9430906A7
:101A500009D4C168C943090605D46FF0800101614A
:101A60002046FFF711FF20680169C943490609D4E0
:101A7000C168C943490605D46FF0400101612046A1
:101A800000F01EF820680169C94389060BD4C168BB
:101A9000C943890607D46FF0200101612046BDE8E3
:101AA0007040FFF7F2BE70BD704770470068034991
:101AB000884201D1FFF782BB704700000008004058
:101AC0007047704770470000F8B502680446106818
:101AD000D168536910F00F0F4FF0000553D003F099
:101AE000010601F4907737435FD0C20705D0CA05DD
:101AF00003D5226C42F001022264420705D5DA07C1
:101B000003D0226C42F002022264820705D5DA0774
:101B100003D0226C42F004022264020707D501F0D0
:101B20002002324303D0226C42F008022264226C6D
:101B3000002A34D0800604D5880602D5204600F05D
:101B4000CBFA20684069216CC0F38010090700D4EB
:101B500030B3204600F0A8FA2068416949061BD539
:101B6000416921F040014161A06BA8B1584941632E
:101B7000A06BFFF7E1F9002811D0A06B416B01B019
:101B8000BDE8F040084783060FD58B060DD52046EB
:101B9000BDE8F84000F0A0BA2046FFF793FFF8BD7B
:101BA0002046FFF78FFF2564F8BD266B2023012E0A
:101BB00052D1C60650D5CE064ED51068506800905A
:101BC000506940062AD5A16B086840680004000CE3
:101BD000EAD0A68D8642E7D9E0858869202818D00A
:101BE000D06820F48070D0602068416921F0010144
:101BF00041612068416921F04001416184F83E3033
:101C000025632068C16821F01001C160A06BFFF757
:101C100070F9A08DE18D401A81B219E0A08DE18D9F
:101C2000401A81B2E08D0028BED00029BCD0D06817
:101C300020F49070D0602068426922F00102426175
:101C400084F83E3025632068C26822F01002C2602A
:101C50002046FFF736FFF8BD05062BD50D0629D522
:101C600094F83D002128F6D1A068B0F5805F01D13D
:101C70002069B0B1206A411C216221680078486067
:101C8000E08C401E0004000CE084E4D12068C168B0
:101C900021F08001C1602068C16841F04001C1604D
:101CA000F8BD206A0088C0F308005060206A801CDC
:101CB0002062E5E74006F3D54806F1D5D168204615
:101CC00021F04001D16084F83D3000F012F9F8BDF8
:101CD0009920000870B5040004D094F83D00002558
:101CE00010B106E0012070BD84F83C50204600F0A1
:101CF00023F8242084F83D002068C16821F40051B5
:101D0000C160204600F044FA2068016921F4904146
:101D100001612068416921F02A0141612068C168A0
:101D200041F40051C1602564202084F83D0084F80E
:101D30003E00002070BD000030B585B00024009446
:101D40000194029403940068184988422CD11848E1
:101D5000816941F480418161816901F4804104918C
:101D6000816941F0040181618069124D00F0040035
:101D700004904FF400700090022001900320039023
:101D800069462846FFF724F92815CDE9000469467D
:101D900028460294FFF71CF9002205212520FFF7B1
:101DA000A5FA2520FFF794FA05B030BD00380140B0
:101DB000001002400008014090F83E30202B0ED168
:101DC00059B152B190F83C30012B08D0012380F872
:101DD0003C300023036300F037BA01207047022033
:101DE0007047000010B501220C490D48FFF7E4FFD1
:101DF0000A4800786B280FD10AA0FEF73DFA0E487A
:101E000001F05EFE002807D00C494FF080500860BA
:101E1000BFF34F8FBFF36F8F10BD00000000002095
:101E2000C800002073656E6420646174612066726E
:101E30006F6D204953520A006920000804ED00E04C
:101E40002DE9F843044690F83D001F4616460D461E
:101E500020284CD1C5B1BEB194F83C00012846D031
:101E6000012084F83C004FF00008C4F84080212095
:101E700084F83D00FFF79CF9A6848146E684A068BB
:101E8000B0F5805F03D004E00120BDE8F88320694D
:101E900028B12E465FF0000584F83C800EE0002655
:101EA000FAE78021204600F0EAF9A0B9AEB116F8B1
:101EB000010B21684860E08C401EE084E08C4B46BA
:101EC0004FF0000200970028EBD14FF04001204670
:101ED00000F0D5F930B10320D7E735F8020BC0F395
:101EE0000800E6E7202084F83D000020CDE702202E
:101EF000CBE770470F4D0024661E3146E86900F0BD
:101F000032FB4FF00208074680F800803146686ACD
:101F100000F029FB064680F80080FC703946E8692D
:101F200000F0A4FB7470641C64B23146686A00F06F
:101F30009DFBF2E700000020FEE700000EB5074C15
:101F400000226846E16900F049FBDDE90001202834
:101F5000F6D1E06900F03CFBF2E700000000002051
:101F6000FEE7FEE710B5502080F31188BFF34F8FD6
:101F7000BFF36F8F01F058FC18B104494FF0805047
:101F80000860002080F3118810BD000004ED00E01F
:101F900030B58FB028216846FEF775FA14210AA8DB
:101FA000FEF771FA01210804CDE900100024029423
:101FB00002250491CDE907504FF4E01009906846DE
:101FC000FFF7D2FA08B172B6FEE70F20CDE90A0595
:101FD0004FF48060CDE90C4002210AA80E94FFF76F
:101FE000B7F9002801D072B6FEE70FB030BD7047D8
:101FF0000148FFF7A6BC000060030020F0B50268AE
:10200000164B174C174D4FF08047984205D0B842F9
:1020100003D0A04201D0A84203D122F070064A6842
:102020003243984205D0B84203D0A04201D0A84222
:1020300003D122F44074CA6822434C6922F0800222
:10204000224302608A68C2620A688262984201D1B1
:102050000969016301214161F0BD0000002C0140CC
:1020600000040040000800400A4E4FF0FF31306A83
:1020700000F079FA04460125002000F0E7FF6570C2
:10208000A570E57025716571A5712146306A00F073
:10209000EDFAF1E70000002010B5406A0021C1858B
:1020A000C184FFF70FFD10BD0168CA6822F4907269
:1020B000CA6001684A6922F001024A61016B012984
:1020C00004D10168CA6822F01002CA60202180F899
:1020D0003E1000210163704708B590F83E10222998
:1020E00001D0022008BD82684FF480539A4201D18A
:1020F000016921B1816A9A421BD04AB10AE00268A3
:10210000816A5268C2F308020A80816A891C08E069
:10211000026972B10268526802F07F020A70816A35
:10212000491C8162C18D491E0904090CC18503D077
:1021300019E002685268F1E70168CA6822F02002DB
:10214000CA600168CA6822F48072CA6001684A697C
:1021500022F001024A61202180F83E10016B012922
:1021600003D0FFF73FFE002008BD00210163016896
:10217000CA6822F01002CA6001680A68D20602D555
:102180000A6849680091818DFFF79BFCEBE700002E
:1021900070B5044600680169E26821F440511143BA
:1021A00001612169A0680843616908432168CA6820
:1021B00041F20C639A430243CA6020684169A269F4
:1021C00021F44071114341611E492068884202D1C7
:1021D000FFF784F901E0FFF771F900EBC00101EBB3
:1021E0000012606864218000B2FBF0F3B3FBF1F3EE
:1021F0006FF018067343B2FBF0F5B2FBF0F605EB97
:102200008305322303EB0515B5FBF1F5B6FBF1F6BB
:1022100005F0F00505EB0615B2FBF0F6B2FBF0F0A9
:10222000B0FBF1F06FF01802504306EB800003EBB7
:102230000010B0FBF1F0216800F00F002844886026
:1022400070BD00000038014081628285C285002196
:102250000164222280F83E2080F83C100168CA68A0
:1022600042F48072CA6001684A6942F001024A6120
:102270000068C16841F02001C160002070472DE96D
:10228000F041984617460E460446069D1DE0681C20
:102290001BD02DB1FEF78CFFA0EB0800A84214D98B
:1022A0002068C16821F4D071C1602068416921F0C3
:1022B00001014161202084F83D0084F83E000020A7
:1022C00084F83C000320BDE8F0812068006836EA0D
:1022D000000004D00020B842D9D00020F3E701204C
:1022E000F9E700000148FFF7EFBB0000C80000203D
:1022F0000EB56425224CA8462F462E46002268467D
:10230000216A00F06BF9DDE90001202803D1CD78C6
:10231000206A00F05DF900226846616A00F05EF90B
:10232000DDE90001202806D1087801281ED0CE78EA
:10233000606A00F04DF901F071FAB0FBF5F105FBB0
:1023400011000028DAD123210E48FEF79CF801F095
:1023500065FACDE900603B4642460BA10948FDF70E
:1023600097FF084A0020115C21B105E091F8018037
:102370008F78DDE7411C6170401C2328F3D3BDE753
:1023800000000020A40000200A54656D7065726191
:10239000747572653A2025646F432C2048756D6909
:1023A000646974793A20256425252C204469737466
:1023B000616E63653A20256420636D2C2054696D3D
:1023C000653A2025640A0000FEE70907090E002887
:1023D00004DB00F1E02080F80014704700F00F00EB
:1023E00000F1E02080F8141D7047000013B54FF095
:1023F000FF33012269460248FFF722FD00981CBD09
:10240000C8000020EFF30580002800D001207047AD
:10241000B8B0FEF7DBFEFFF7BBFD4848816941F02D
:1024200020018161816901F020013691816941F0CB
:10243000040181618069424900F0040036904148FE
:102440000C2201604FF4E131416000218160C160E4
:10245000C0E904128161C161FFF73CFC08B172B6AA
:10246000FEE7012238493748FFF7A6FC1C2237490E
:102470006846FDF7D6FF0021684600F0A1F9324C0E
:10248000324D6060D5E90701CDE92A0133A82C90CF
:1024900000212AA800F06EF8E061D5E90A01CDE933
:1024A0002D0134A82F9000212DA800F063F82062A0
:1024B000D5E90D01CDE9300135A83290002130A8D1
:1024C00000F058F860621C2205F1400107A8FDF7F2
:1024D000A8FF002107A800F073F9A0601C2205F1F5
:1024E0005C010EA8FDF79DFF00210EA800F068F921
:1024F000E0601C2205F1780115A8FDF792FF00218C
:1025000015A800F05DF920611C2205F194011CA8BA
:10251000FDF787FF00211CA800F052F960611C2222
:1025200005F1B00123A8FDF77CFF002123A800F0EE
:1025300047F9A06100F012F8FEE700000010024029
:1025400000380140C800002000000020483B00087F
:1025500001460020842900D0C81C704710B500F047
:102560003FFD002010BD002802D0806800F0ACB80C
:10257000704700003EB50446002000900190029094
:1025800020680090606801900C2000F097FBA16823
:102590000028086019D0046000220421206800F09F
:1025A0003DFEA16809684860A168096870B1684685
:1025B00000F0BFF80100A06800688160A0680068B2
:1025C00003D100BF00F07CFC00203EBD0846F9E7C7
:1025D00010B1806800F0DCB8802070472DE9FF4121
:1025E0000D000646029522D04FF000084446CDF873
:1025F0000C80501C20D002B11446FFF703FF2027A7
:102600000028686869461CD003AA091D01F018F863
:10261000012814D0CDF800800398D8B112494FF0AA
:1026200080500860BFF34F8FBFF36F8F12E08020A0
:1026300000902A4601990FE04FF0FF34DDE7009744
:10264000EAE72246091D00F05FFF012808D04CB1DF
:10265000402000909DE8070086E80700BDE8FF8164
:102660000097F7E70020F4E704ED00E013B582B02F
:1026700004000FD000200090FFF7C4FE002860681F
:102680004FF0000314D06A4603A900F0DFFE0128D2
:1026900014D102E0802004B010BD009880B1094937
:1026A0004FF080500860BFF34F8FBFF36F8F07E08C
:1026B000002203A900F01AFE012801D0FF20EAE75A
:1026C0000020E8E704ED00E070B5002504462E4642
:1026D000FFF798FE48B15020EFF3118580F3118881
:1026E000BFF34F8FBFF36F8F01E000F0B5FB002108
:1026F000A26809E020690844B0FBF2F302FB130072
:1027000063681B5C43B1491C8A42F3D8FFF77AFE29
:1027100058B185F311880AE0626801211154E2681A
:102720002168206100FB0216F0E700F0B5FB30469F
:1027300070BD2DE9F04105464068C01C20F003073C
:10274000142000F0BBFA04001FD000262868266180
:10275000C4E90207286800F0B1FA606088B128680F
:10276000784300F0ABFA206040B1002002E06168DD
:102770000E54401C29688142F9D806E0606800F0D8
:102780009FFB204600F09CFB00242046BDE8F08122
:1027900078B171B102688A420BD8891AC268B1FB5C
:1027A000F2F302FB131323B9B1FBF2F182688A4200
:1027B00001D880207047406800224254104670477C
:1027C0007FB50D4604464169B0F9080081B1A169A1
:1027D00071B1FFF7BDFED4E905128DE80700D4E919
:1027E00000102B46226900F0E0FF039004B070BD9A
:1027F000FFF7AEFE03A9CDE90001208A2B4682B285
:10280000D4E9001000F0A4FF012801D00020EDE77A
:102810000398EBE72DE9F041184C0F460546666931
:102820002068001D00F0C8FA38B9206890F82C1014
:1028300001208840A1698143A161681C07D137B19B
:102840002168BDE8F0410E48091D00F0F9BA206882
:102850003544B5424560216805D2A068BDE8F04125
:10286000091D00F0D5BA6068091D00F0D1FA206B8F
:10287000854200D22563BDE8F081000038000020C9
:10288000840400202DE9F041054600F0E5FA2E4CC5
:102890002069401C206120682C4F10B1E06940B3D2
:1028A0002DE025602069012829D1002606EB86004D
:1028B00007EB800000F09EFA761C072EF6D3234823
:1028C0008C3000F097FA2148A03000F093FA1F48AE
:1028D000B43000F08FFA1D48C83000F08BFA1B4866
:1028E000DC3000F087FA19488C3060601430A0604A
:1028F00005E02068E96AC06A884200D82560E06A7D
:10290000401CE062E96A0120A26988401043A0618E
:1029100001EB810007EB8000291D00F091FA00F027
:10292000BBFAE06900280CD02068E96AC06A8842D6
:1029300007D207494FF080500860BFF34F8FBFF3B5
:102940006F8FBDE8F081000038000020A803002050
:1029500004ED00E030B4026C0B46002A0BD0C168D5
:102960001144C1604468A14201D30168C16030BC18
:102970001846FDF711BD30BC70472DE9F041856B5D
:10298000174604460026026C82B1C7B1E068FDF725
:1029900003FDE168206C091AE1602268914202D2CD
:1029A0006168081AE060022F16D017E02068A8B905
:1029B000606800F09DFF0646002060600EE0A068A1
:1029C000FDF7EAFC216CA0680844A06061688842B9
:1029D00004D32068A06001E005B16D1E6D1CA563E5
:1029E0003046BDE8F08110B5044690F8510058B16A
:1029F00001280CD002280FD0502080F31188BFF39B
:102A00004F8FBFF36F8FFEE7206B00F059FA20461F
:102A1000BDE8104000F054BA10BD000010484FF45B
:102A20004061420706D0C01D0D4920F00700411A41
:102A3000C1F540610B4A00230144C2E90003083993
:102A4000103A21F0070111604B600B600B1AC0E9CE
:102A5000001393604FF000405360D0607047000057
:102A60009804002084000020144E154CA6F1C807DD
:102A70004FF08058DFF84C9012E000BF00F0ECF906
:102A8000F068C568281D00F097F92069401E206194
:102A9000E068401EE06000F0FFF92846FFF7A3FF62
:102AA000E0680028EAD138680128F9D9C9F800801F
:102AB000BFF34F8FBFF36F8FF2E700007004002069
:102AC0003800002004ED00E00346009829B10260C0
:102AD000C0E90F31012100F0C5BB0060F8E72DE926
:102AE000F0479A46DDE9098481466FF00303206BC5
:102AF00003EB82021044089D20F00706700707D000
:102B0000502080F31188BFF34F8FBFF36F8FFEE724
:102B100023180A5C83F834200A5C12B1401C102888
:102B2000F6D3002784F84370072D00D30625E5620D
:102B3000C4E91157201D00F068F904F1180000F0F5
:102B400064F92461C5F107006462A061E76484F858
:102B5000507052464946304600F01CF92060B8F1EA
:102B6000000F01D0C8F80040BDE8F08730B511492A
:102B700000E011460A688242FBD34B685C1884422D
:102B800003D1406818444860084643681C189442C2
:102B900009D1084C103C2468A24209D052681A445A
:102BA00042600A6812680260814200D0086030BD4D
:102BB0000460F9E78400002010B5044600F04CF9E9
:102BC000A06B28B15FF0000400F066F9204610BD4C
:102BD0000124F9E706484168096829B14168C968D4
:102BE000C9684968016370474FF0FF31FAE7000098
:102BF0003800002008484068401C4FF0500080F327
:102C0000118804D0BFF34F8FBFF36F8FFEE7BFF380
:102C10004F8FBFF36F8FFEE78C000020002150B173
:102C20000A4B42699A420FD1806AA3F1280290426E
:102C30000AD040B108E0502080F31188BFF34F8FD5
:102C4000BFF36F8FFEE70121084670478404002020
:102C50002DE9F041044600F0FFF894F9455004F1E5
:102C6000240609E0606A48B1304600F08DFE08B1E4
:102C700000F098F96D1E6DB2002DF3DC4FF0FF36B9
:102C800084F8456000F008F900F0E6F894F9445043
:102C900004F1100709E0206948B1384600F074FEDD
:102CA00008B100F07FF96D1E6DB2002DF3DC84F8E1
:102CB0004460BDE8F04100F0EFB800002DE9F041BC
:102CC0000546002700F020FA314E306808B9FFF7BA
:102CD000A5FEF06805424BD1C5B3083568070ED094
:102CE00005F00700C0F108000544680707D0502030
:102CF00080F31188BFF34F8FBFF36F8FFEE72DB3C3
:102D00007068854234D82248103001460C6801E0D2
:102D100020460C466168A94202D221680029F7D1F9
:102D200031688C4224D007682168016060680837E8
:102D3000411B10290FD96019420708D0502080F399
:102D40001188BFF34F8FBFF36F8FFEE710E0416034
:102D50006560FFF70BFF61687068401A7060B268C9
:102D6000904200D2B060F06801430020C4E9000145
:102D700000F044FE780707D0502080F31188BFF39D
:102D80004F8FBFF36F8FFEE73846BDE8F08100003C
:102D90007400002010B5031F4FF080741C601B1FCF
:102DA00021F001011960191F024B0B6014394038E2
:102DB0000A6010BDF52B0008D0E9013201699A6064
:102DC000D0E901235A604A68824201D182684A6090
:102DD000002202610868401E086008687047000011
:102DE000034B036003F154000860802010607047BB
:102DF0000C01002000F108014FF0FF32C0E9011280
:102E0000C1600161002101607047002101617047CC
:102E100030B50B685A1C02D000F1080202E00269CA
:102E200004E02246546825689D42FAD953684B60F5
:102E300099608A60516008610168491C016030BD79
:102E400042684A6093688B6093685960916008613A
:102E50000168491C01607047502080F31188BFF35E
:102E60004F8FBFF36F8F0A494868401C48600128A4
:102E70000CD10848006810F0FF0F07D0502080F3F5
:102E80001188BFF34F8FBFF36F8FFEE770470000CD
:102E90008C00002004ED00E00849486828B1401E7D
:102EA000486001D180F311887047502080F3118869
:102EB000BFF34F8FBFF36F8FFEE700008C00002041
:102EC00070B5002827D0144DA0F108046168E868A7
:102ED000014207D1502080F31188BFF34F8FBFF319
:102EE0006F8FFEE722683AB1502080F31188BFF35C
:102EF0004F8FBFF36F8FFEE78143616000F004F9ED
:102F000060686968084468602046FFF72FFEBDE8E6
:102F1000704000F073BD70BD740000204FF0E020E1
:102F200000210161816105494FF47A720968B1FBA2
:102F3000F2F1491E41610721016170473400002010
:102F400010B5FDF775F9114910280ED300F1E020F6
:102F500090F8F0030A78904207D2502080F311884D
:102F6000BFF34F8FBFF36F8FFEE709480068896892
:102F700000F4E060884207D9502080F31188BFF345
:102F80004F8FBFF36F8FFEE710BD00008C00002055
:102F90000CED00E002498A6A0260496941607047AD
:102FA00038000020014901204862704738000020A5
:102FB00010B50C4650B1094909681831FFF728FFD0
:102FC0002046BDE810400121FFF724BC502080F3CB
:102FD0001188BFF34F8FBFF36F8FFEE738000020DB
:102FE00010B586B00024039405AA04A903A804948C
:102FF000FFF7F6FEDDE903010094CDE9011000239F
:103000000EA11048059A00F0D0FB0F490028486334
:1030100011D0502080F31188BFF34F8FBFF36F8F13
:103020004FF0FF3008630120C8614C6106B0BDE875
:10303000104000F09FB806B010BD000049444C4558
:1030400000000000692A00083800002070B504461E
:10305000FFF702FF294D04B92C68201DFFF7ACFED5
:1030600058B9E06A264A00EB800152F8211021B9D4
:1030700001218140A8698843A861A06A18B104F1C0
:103080001800FFF799FE1E48211DDC30FFF7D8FE1F
:1030900094F850000026012801D184F85060FFF711
:1030A000FBFEE86928B1FFF7D7FEFFF793FDFFF7B6
:1030B000F3FE2868844213D1E86990B1A86B38B157
:1030C000502080F31188BFF34F8FBFF36F8FFEE75F
:1030D0000C494FF080500860BFF34F8FBFF36F8FE4
:1030E00070BD0748DC3000682969884201D12E6034
:1030F00070BDBDE8704000F00FB80000380000203F
:10310000A803002004ED00E00248816B491C8163A4
:1031100070470000380000201448816B11B1012174
:1031200041627047002141628169B1FA81F1C1F1C8
:103130001F0101EB81020E4951F822306BB101EB06
:10314000820101F108034A6852684A609A4201D13B
:1031500052684A60D16801607047502080F311883E
:10316000BFF34F8FBFF36F8FFEE7000038000020E2
:10317000A80300201CB5264908780190FF2008709C
:1031800008788DF800009DF800009DF8002000F000
:10319000F000904207D0502080F31188BFF34F8F8A
:1031A000BFF36F8FFEE79DF800001A4B00F0500050
:1031B00018700720986005E09DF8002052008DF8F7
:1031C0000020401E9DF800201206F5D498600328C8
:1031D00007D0502080F31188BFF34F8FBFF36F8F5C
:1031E000FEE74FF440709860019808700A48016843
:1031F00041F470010160016841F070410160FFF726
:103200008DFE00205860FCF7DDFF00201CBD000093
:1032100000E400E08C00002020ED00E0F8B5174647
:103220000E46050014D0DEB105FB06F04830FFF76E
:1032300045FD04000AD0002084F8460004F148024D
:103240003B46314628460094FFF73EFC2046F8BD39
:10325000502080F31188BFF34F8FBFF36F8FFEE7CD
:103260000020E3E770B50D46040025D0FFF7F4FD1C
:10327000D4E90F20216802FB001161600021A163E5
:103280002168A1600A46D4E90F01401E00FB01211C
:10329000E16021464FF0FF3001F8440F487004F11F
:1032A00010008DB1FFF7A6FD04F12400FFF7A2FD89
:1032B000FFF7F2FD012070BD502080F31188BFF3AD
:1032C0004F8FBFF36F8FFEE721690029F0D000F028
:1032D0005BFB0028ECD004494FF080500860BFF33E
:1032E0004F8FBFF36F8FE3E704ED00E02DE9FF4759
:1032F00082B01D468A464FF00008040003D0BAF1A0
:10330000000F08D011E0502080F31188BFF34F8FD9
:10331000BFF36F8FFEE7206C38B1502080F3118827
:10332000BFF34F8FBFF36F8FFEE7022D0AD1E06B23
:10333000012807D0502080F31188BFF34F8FBFF3CF
:103340006F8FFEE700F05CFA3F4F4FF000094FF03F
:10335000805648B9049838B1502080F31188BFF3E3
:103360004F8FBFF36F8FFEE7FFF776FDA06BE16B2A
:10337000884207D3022D05D00498D0B1B8F1000FD0
:103380001AD01EE02A4651462046FFF7F6FA616A37
:1033900019B104F1240000F0F7FA20B13E60BFF348
:1033A0004F8FBFF36F8FFFF777FD012006B0BDE8A9
:1033B000F087FFF771FD22E06846FFF7EBFD4FF065
:1033C0000108FFF769FDFFF79FFEFFF745FD94F940
:1033D0004400401C01D184F8449094F94500401CFD
:1033E00001D184F84590FFF757FD04A9684600F025
:1033F00075F930B12046FFF72BFC00F0FFFA0020F2
:10340000D4E7FFF729FDA06BE16B884213D1FFF7EA
:1034100043FD04F110000499FFF7CAFD2046FFF7B1
:1034200017FC00F0EBFA00289ED13E60BFF34F8FEF
:10343000BFF36F8F98E7FFF72FFD2046FFF708FCDB
:1034400000F0DCFA90E7000004ED00E02DE9F04721
:103450001F4690468946040003D0B9F1000F08D0FA
:1034600011E0502080F31188BFF34F8FBFF36F8FAF
:10347000FEE7206C38B1502080F31188BFF34F8FE6
:10348000BFF36F8FFEE7022F0AD1E06B012807D050
:10349000502080F31188BFF34F8FBFF36F8FFEE78B
:1034A000FFF74EFD5020EFF3118680F31188BFF334
:1034B0004F8FBFF36F8FA06BE16B884206D3022F53
:1034C00004D0002086F31188BDE8F08794F94550B8
:1034D0003A4649462046FFF750FA681C04D06D1C56
:1034E00084F845500120EDE7606A0028FAD004F125
:1034F000240000F049FA0028F4D0B8F1000FF1D010
:103500000121C8F80010EDE72DE9F747002683B048
:103510008A46040003D0BAF1000F08D011E0502011
:1035200080F31188BFF34F8FBFF36F8FFEE7206CDE
:1035300038B1502080F31188BFF34F8FBFF36F8FE6
:10354000FEE700F05DF9DFF8F4804FF000094FF07E
:10355000805748B9059838B1502080F31188BFF3DF
:103560004F8FBFF36F8FFEE7FFF776FCA56BC5B1FA
:1035700051462046FFF7EEF96D1EA563206950B154
:1035800004F1100000F000FA28B1C8F80070BFF391
:103590004F8FBFF36F8FFFF77FFC012006B0BDE8B0
:1035A000F087059808B11EB106E0FFF775FC27E02B
:1035B0006846FFF7EFFC0126FFF76EFCFFF7A4FD5E
:1035C000FFF74AFC94F94400401C01D184F8449070
:1035D00094F94500401C01D184F84590FFF75CFC4C
:1035E00005A9684600F07AF8002820460AD0FFF7BF
:1035F0002FFB00F003FA2046FFF7DEFA0028B3D0D5
:103600000020CBE7FFF7D8FA90B104F12400059928
:10361000FFF7CEFC2046FFF71BFB00F0EFF9002878
:10362000A2D1C8F80070BFF34F8FBFF36F8F9BE735
:103630002046FFF70DFB00F0E1F995E704ED00E00F
:103640002DE9F04790468946040003D0B9F1000FF8
:1036500008D011E0502080F31188BFF34F8FBFF3E3
:103660006F8FFEE7206C38B1502080F31188BFF3D4
:103670004F8FBFF36F8FFEE7FFF762FC5020EFF331
:10368000118680F31188BFF34F8FBFF36F8FA76B45
:10369000F7B194F9445049462046FFF75BF97F1E85
:1036A000A763681C04D06D1C84F84450012010E00E
:1036B00020690028FAD004F1100000F065F9002814
:1036C000F4D0B8F1000FF1D00121C8F80010EDE7F7
:1036D000002086F31188BDE8F08700002DE9F04155
:1036E0000C46050011D0C4B1FFF7B6FB174B5A6961
:1036F0006E682068911B471C17D02F689B6A9F42F9
:1037000019D0964217D8012410E0502080F3118878
:10371000BFF34F8FBFF36F8FFEE7502080F3118808
:10372000BFF34F8FBFF36F8FFEE70024FFF7B4FBAB
:103730002046BDE8F081884205D9401A206028461D
:10374000FFF728FCF1E700202060DCE738000020CC
:103750002DE9FF5F8346DDE90E87994616468A46C6
:103760009000FFF7ABFA05001CD05420FFF7A6FA33
:10377000040014D00020256384F85100CDE90240F4
:10378000CDE900874B46324651465846FFF7A7F928
:103790002046FFF777F8012004B0BDE8F09F2846E7
:1037A000FFF78EFB4FF0FF30F6E7F0B585B0DDE9AF
:1037B0000B640A9DA6B1DCB154270097266302264C
:1037C00084F85160002604AFCDE90246CDE90057E8
:1037D000FFF785F92046FFF755F8049805B0F0BDCE
:1037E000502080F31188BFF34F8FBFF36F8FFEE738
:1037F000502080F31188BFF34F8FBFF36F8FFEE728
:103800000548C16919B1806B18B1002070470120CB
:1038100070470220704700003800002001484069CE
:1038200070470000380000202DE9F0412E4C0027A1
:10383000A06B40B1206A401C2062606A00B1012781
:103840003846BDE8F0816669761C666113D1606810
:10385000006838B1502080F31188BFF34F8FBFF359
:103860006F8FFEE76068A1686160A060A06A401C7D
:10387000A062FFF7AFF9206BDFF87080864209D3B2
:103880006068006880B16068C068C5686868864222
:103890000DD220632068C06A00EB800158F8210037
:1038A0000128CAD90127C8E74FF0FF30F1E7281DEA
:1038B000FFF782FAA86A18B105F11800FFF77CFA41
:1038C000E86A0121A26981401143A16100EB8001F6
:1038D00008EB8100291DFFF7B3FAE86A2168C96A7D
:1038E0008842CDD30127CBE738000020A803002071
:1038F00070B504004FF0000140D0214D286884428B
:1039000007D0502080F31188BFF34F8FBFF36F8F24
:10391000FEE7A06C38B1401EA064636CE26A9A4274
:103920002CD040B12AE0502080F31188BFF34F8F94
:10393000BFF36F8FFEE7201DFFF73EFA114A01210A
:1039400050B9E06A00EB800352F8233023B9AB6929
:1039500001FA00F08343AB61606CE062C0F10700E4
:10396000A061E06AAB6981401943A96100EB800066
:1039700002EB8000211DFFF763FA0121084670BDAC
:1039800038000020A80300202DE9F041C068C46879
:10399000ACB104F118000746FFF70EFA154DA86BFD
:1039A0000126A0B139461448FFF74AFAE06A2968AF
:1039B000C96A88421CD901206E62BDE8F08150209E
:1039C00080F31188BFF34F8FBFF36F8FFEE7201D89
:1039D000FFF7F2F9E16AAA6906FA01F01043A8615B
:1039E00001EB81000449B43901EB8000211DDBE7C4
:1039F0000020E2E7380000205C0400202DE9F047B9
:103A00002C4D00242746A86B38B1FFF725FAA86B88
:103A1000401EA863A86B40B146E0502080F3118897
:103A2000BFF34F8FBFF36F8FFEE72969224E01204E
:103A3000D1B3A6F1B40980463068E8B1F068C46833
:103A400004F11800FFF7B8F9201DFFF7B5F9E06A97
:103A5000AA6908FA00F11143A96100EB800109EBA2
:103A60008100211DFFF7ECF9E06A2968C96A8842E4
:103A7000E2D3C5F82480DFE70CB1FFF7ABF82C6A7E
:103A800044B14646FFF7D0FE00B16E62641EF9D124
:103A900000202862686A38B10849012738070860A1
:103AA000BFF34F8FBFF36F8FFFF7F6F93846BDE8CE
:103AB000F0870000380000205C04002004ED00E0E6
:103AC0002DE9F0410027040015D0FFF739FA502006
:103AD000EFF3118580F31188BFF34F8FBFF36F8F22
:103AE0002046FFF79BF830B3154EB06B58B104F188
:103AF000180114481DE0502080F31188BFF34F8F48
:103B0000BFF36F8FFEE7E06A3168C96A884200D36D
:103B10000127201DFFF750F9E16A0120B2698840B2
:103B20001043B06101EB81000649B43901EB80001C
:103B3000211DFFF785F985F311883846BDE8F0812E
:103B4000380000205C0400206C3C00089D0E00083A
:103B500000000000000000008000000000000000E5
:103B6000000000000E000000040000000000000043
:103B70000E00000004000000000000000E00000025
:103B80000700000000000000483C0008F51E000887
:103B9000FFFF000000000000000200000000000025
:103BA000000000005C3C00083D1F00080100000010
:103BB0000000000000020000000000000000000003
:103BC0007C3C0008692000080100000000000000A3
:103BD000000200000000000000000000A83C0008F7
:103BE0006D0E00080100000000000000000200004F
:103BF00000000000000000008C3C0008F1220008DA
:103C000001000000000000000002000000000000B1
:103C10000000000048656C6C6F20446576496F5465
:103C2000000000000000000000000102030406077D
:103C3000080900000000010203043A7474003A7499
:103C400074003A7474000000484353523034546195
:103C5000736B48616E646C65000000004C43445413
:103C600061736B48616E646C650000004448545495
:103C700061736B48616E646C65000000554152547D
:103C80005461736B48616E646C65000055617274B9
:103C90005F5468726573686F6C645461736B4861DC
:103CA0006E646C6500000000427574746F6E546140
:103CB000736B48616E646C6500000000DC3C0008BA
:103CC00000000020A400000028010008803D00083A
:103CD000A400002054170000440100080000000068
:103CE00000000000000000000000000000000000D4
:103CF00000000000000000000000000000000000C4
:103D000000000000010000001000000000000000A2
:103D10000024F4000000000000000000000000008B
:103D20000000000000000000000000000000000093
:103D30000000000000000000000000000000000083
:103D40000000000000000000000000000000000073
:103D50000000000000000000000000000000000063
:103D6000000000000000000000000000AAAAAAAAAB
:103D70000000000000000000000000000000000043
:04000005080000ED02
:00000001FF
